:020000040800F2
:10000000000400206F1E0008450500084705000891
:100010004B0500084F0500085305000800000000CC
:1000200000000000000000000000000015020008B1
:10003000590500080000000059020008152F0008AB
:100040008F1E00088F1E00088F1E00088F1E0008DC
:100050008F1E00088F1E00088F1E00088F1E0008CC
:100060008F1E00088F1E00088F1E00089B050008C9
:100070008F1E00088F1E00088F1E00088F1E0008AC
:100080008F1E00088F1E00088F1E00088F1E00089C
:100090005F0500088F1E00088F1E00086705000816
:1000A0008F1E00088F1E00088F1E00088F1E00087C
:1000B0008F1E00088F1E00088F1E00088F1E00086C
:1000C0008F1E00088F1E00088F1E00088F1E00085C
:1000D0008F1E00088F1E00088F1E00088F1E00084C
:1000E0008F1E00088F1E00088F0500088F1E000855
:1000F0008F1E00088F1E00088F1E00088F1E00082C
:100100008F1E00088F1E00088F1E00088F1E00081B
:100110008F1E00088F1E00088F1E00088F1E00080B
:100120008F1E00088F1E00088F1E00088F1E0008FB
:1001300000F002F800F05FF80AA090E8000C82449A
:100140008344AAF10107DA4501D100F054F8AFF277
:10015000090EBAE80F0013F0010F18BFFB1A43F0A5
:1001600001031847D4500000F45000000A444FF037
:10017000000C10F8013B13F0070408BF10F8014B06
:100180001D1108BF10F8015B641E05D010F8016B4B
:10019000641E01F8016BF9D113F0080F1EBF10F8AF
:1001A000014BAD1C0C1B09D16D1E58BF01F801CBD2
:1001B000FAD505E014F8016B01F8016B6D1EF9D555
:1001C0009142D6D37047000000230024002500266A
:1001D000103A28BF78C1FBD8520728BF30C148BFAA
:1001E0000B607047642904F0AD86002070471FB58E
:1001F0001FBD10B510BD04F08FFF1146FFF7F7FFCC
:1002000000F02FF904F0ADFF03B4FFF7F2FF03BCD9
:1002100000F05EFA204B19680868B0E8F00F80F330
:100220000988BFF36F8F4FF0000080F311884EF004
:100230000D0E70470000000006480068006880F35B
:10024000088862B661B6BFF34F8FBFF36F8F00DFD0
:1002500000BF00BF08ED00E0EFF30980BFF36F8F30
:100260000D4B1A6820E9F00F106008B54FF0BF0081
:1002700080F3118802F0AEF94FF0000080F311888E
:10028000BDE8084019680868B0E8F00F80F30988F5
:10029000BFF36F8F704700BF20000020EFF3118085
:1002A0004FF0BF0181F31188704780F311887047C8
:1002B000EFF30580704700000CE08AA004F002FE16
:1002C00089484288018889A004F0FCFD4FF4FA7047
:1002D00002F0D4F8F1E770E083490988824A528835
:1002E000881800EBD07149103231834A11607E4882
:1002F00000881146096888422CD97B4840881146FD
:100300000968884226D278480088114609688842E0
:1003100020D9754840881146096888421AD200BF22
:1003200071480088744909688842F9D26E4840884B
:10033000714909688842F3D94FF4967002F09EF82B
:10034000022004F004FB4FF4967002F097F80020AE
:1003500004F0FDFA644800886749096888422CD295
:100360006148408864490968884226D95E48008807
:1003700061490968884220D25B4840885E49096823
:1003800088421AD900BF584800885B4909688842EA
:10039000F9D955484088584909688842F3D24FF442
:1003A000967002F06BF8042004F0D1FA4FF49670C6
:1003B00002F064F8002004F0CAFA8DE710E0012290
:1003C00011464E4800F019FCC82002F057F80022F0
:1003D00001214A4800F011FC4FF4967002F04EF8EB
:1003E000EDE710E001225103454800F006FC6420CF
:1003F00002F044F800224FF40051414800F0FDFBA8
:10040000642002F03BF8EDE708B504F088F904F049
:100410003BFA04F0FEF903F08BFB00F059FA00F010
:100420000EF900F0B5F90121082000F0CDFD012101
:10043000102000F0C9FD10208DF8030003208DF876
:1004400002004FF40050ADF8000069462C4800F05F
:1004500025FB0120ADF800006946284800F01EFB8E
:1004600008BD1FB5FFF7D0FF00200323CDE9003002
:1004700002900346802223A10390254801F0D0FD7D
:1004800000200323CDE9003002900346802221A101
:100490000390234801F0C4FD00200423CDE900307F
:1004A0000290034680221FA10390224801F0B8FD6C
:1004B00000200523CDE900300290034680221EA1D2
:1004C00003901F4801F0ACFD02F0D4F9002004B005
:1004D00010BD01B502E00098401E00900098002871
:1004E000F9D108BD3E3E00009C0100207C2564201F
:1004F000202025640A0D000000000020000C0140AF
:10050000001001404C45443120536872696E6B0005
:10051000E30300084C45443220536872696E6B0057
:10052000BD0300085553422048494420446576697C
:1005300063650000D70200085541525400000000D6
:10054000B9020008704700BFFEE700BFFEE700BF2A
:10055000FEE700BFFEE7704770477047704710B571
:1005600004F078FA10BD10B54FF4807000F07AFEF8
:1005700060B10E480068407A10F0200F02D00120D0
:1005800004F043FC4FF4807000F07DFE10BD10B508
:100590004FF4802000F077FE10BD10B5022001F06E
:1005A000ECF910B1022001F0FBF910BD7C00002035
:1005B00070B585B002460020002300BF0CE00A247D
:1005C000B2FBF4F504FB152430340DF80040441C54
:1005D000E0B20A24B2FBF4F2002AF0D10346002074
:1005E00006E01C1A641E1DF804400C54441CE0B2C2
:1005F0009842F6DB20B930260446451CE8B20E5579
:1006000000240C5405B070BD2DE9F04105460026CC
:100610000127284604F0D2FC00F0FF08444609E018
:10062000601E285C303800FB076607EB8700470038
:10063000601EC4B2002CF3DC3046BDE8F08100B58A
:1006400087B0012144F2050000F0BEFC4FF40070B9
:10065000ADF8180003208DF81A0018208DF81B0043
:1006600006A9484800F01AFA4FF48060ADF8180067
:1006700048208DF81B0006A9424800F00FFA4FF4FD
:10068000E13002900020ADF80C00ADF80E00ADF89E
:100690001000ADF814000C20ADF812000020ADF8E9
:1006A0000000ADF802004FF40070ADF80400002027
:1006B000ADF806006946344801F024FA02A9324830
:1006C00001F0C9F90121304801F033FA07B000BD4B
:1006D000014600BF7047C2B22B4B1B1D1A8000BFE2
:1006E000294A128812F0400FFAD070472649091D96
:1006F000088000BF2449098811F0400FFAD07047E4
:100700000AE010F8011B204A121D118000BF1E498B
:10071000098811F0400FFAD001780029F1D1704713
:1007200000B50D20FFF7E2FF0A20FFF7DFFF00BD55
:1007300000B5024609E010780A2802D1FFF7F0FF61
:1007400002E01078FFF7D2FF521C10780028F2D197
:1007500000BD10B585B0044669462046FFF728FF66
:100760006846FFF7E5FF05B010BD30B505460C46FD
:100770002846FFF7DDFF2046FFF7EBFF03A0FFF75A
:10078000D7FF30BD00080140003801400A000000DA
:1007900000B591B00121084600F009FC01214FF499
:1007A000017000F011FCFC20ADF8000000208DF875
:1007B00003006946564800F071F9564800F0E4FF1E
:1007C000554801905548029000200390062004905F
:1007D000002005908020069040000790800008903F
:1007E0002020099000020A9000200B9001A949489E
:1007F00001F063F801220221464801F094F801213A
:10080000444801F085F800200C9001208DF8340058
:100810008DF835004FF460200E9000200F900620D8
:100820008DF840000CA93C484C3800F0C2FD012373
:100830001A46022138484C3800F053FE05230222A4
:10084000032135484C3800F04CFE052303220421D7
:1008500031484C3800F045FE0523042219462E4845
:100860004C3800F03EFE05231A4606212A484C3833
:1008700000F037FE05230622072127484C3800F0F8
:1008800030FE012124484C3800F0CAFD01212248E5
:100890004C3800F0BAFD20484C3800F0D8FD00BFBD
:1008A0001D484C3800F0D8FD0028F9D11A484C38C2
:1008B00000F0DCFD00BF18484C3800F0DCFD0028DB
:1008C000F9D1012114484C3800F0DFFD11B000BD12
:1008D00008B54FF4A06000F0DFFB0B208DF800009E
:1008E00000208DF8010001208DF802008DF8030032
:1008F000684600F0D6FB08BD10B5482000F010F89F
:10090000FFF7E6FFFFF79BFEFFF742FF012010BD58
:1009100000080140080002404C2401409C010020D6
:100920004FF0E021096921F004014FF0E02211614C
:10093000C21700EB5272C2F3C702224B1A7019465B
:10094000097801EB4102C2EBC1114FF6FF7202EAD6
:10095000C1011D4A1180704701461A4A12784A4364
:100960004FF0E0235A6100229A6101221A6100BF10
:100970004FF0E022106910F0010F02D010F4803F18
:10098000F6D000224FF0E0231A619A6170470146C9
:100990000D4A12884A434FF0E0235A6100229A61BF
:1009A00001221A6100BF4FF0E022106910F0010F20
:1009B00002D010F4803FF6D000224FF0E0231A61FD
:1009C0009A617047080000200A00002010B5044614
:1009D000C549601A8C422FD009DCC448201810D0B9
:1009E000B0F5806F16D0B0F5006F4AD11BE0B0F5BE
:1009F000806F2AD0B0F5006F30D0B0F5406F40D195
:100A000035E00121042000F0F9FA0021042000F073
:100A1000F5FA37E00121082000F0F0FA0021082063
:100A200000F0ECFA2EE00121102000F0E7FA00219E
:100A3000102000F0E3FA25E00121202000F0DEFA8A
:100A40000021202000F0DAFA1CE00121402000F013
:100A5000D5FA0021402000F0D1FA13E001218020D6
:100A600000F0CCFA0021802000F0C8FA0AE0012151
:100A7000080200F0C3FA00214FF4807000F0BEFAC3
:100A800000E000BF00BF10BD10B50121084600F016
:100A9000B5FA0021012000F0B1FA10BD2DE9F041B6
:100AA000024600250026002000230024002791F89C
:100AB00003C00CF00F0591F803C01CF0100F03D019
:100AC00091F802C04CEA050591F800C0BCF1000F96
:100AD00031D0146800202BE04FF0010C0CFA00F329
:100AE000B1F800C00CEA03069E4220D183004FF00B
:100AF0000F0C0CFA03F7BC4305FA03FC4CEA0404A0
:100B000091F803C0BCF1280F06D14FF0010C0CFA8C
:100B100000FCC2F814C00AE091F803C0BCF1480F11
:100B200005D14FF0010C0CFA00FCC2F810C0401CBB
:100B30000828D1D31460B1F800C0BCF1FF0F34DD38
:100B4000546800202EE000F1080C4FF0010808FA6C
:100B50000CF3B1F800C00CEA03069E4221D18300D9
:100B60004FF00F0C0CFA03F7BC4305FA03FC4CEAF8
:100B7000040491F803C0BCF1280F05D100F1080C62
:100B800008FA0CF8C2F8148091F803C0BCF1480FC1
:100B900007D100F1080C4FF0010808FA0CF8C2F870
:100BA0001080401C0828CED35460BDE8F0814FF679
:100BB000FF710180022181700421C17070470246DB
:100BC000002093680B4201D0012000E00020704714
:100BD0000146886880B2704702460020D3680B4205
:100BE00001D0012000E0002070470146C86880B2B3
:100BF000704701617047416170470AB1016100E0CF
:100C000041617047C16070474FF480320A4382618E
:100C10008161826182698269704702460020344B9B
:100C200018684FF68073184040EA02100843304BB2
:100C3000186070472F49C8617047F0B50A46002315
:100C40000024002100252A4E7168C0F3034583B2B9
:100C500000F44016B6F5401F08D121F07061244E13
:100C6000766826F07066224F7E6012E000F48016EF
:100C7000B6F5801F06D1032606FA05F4A14341F01C
:100C8000706106E0460D360103FA06F6B14341F005
:100C9000706122B1460D360103FA06F63143144E57
:100CA0007160F0BD30B500228B071C0F0F2303FAD3
:100CB00004F20F4B08338C1053F8243093430C4C40
:100CC00008348D1044F8253023468C1053F8243016
:100CD0008C07240F00FA04F42343054C08348D10CC
:100CE00044F8253030BD00000014014000F8FEBF7C
:100CF0000000014000002042DC48006840F0010094
:100D0000DA49086008464068D9490840D749486030
:100D100008460068D7490840D4490860084600687A
:100D200020F4802008600846406820F4FE004860F7
:100D3000002088607047CD49096821F48031CB4A92
:100D400011601146096821F480211160B0F5803FDF
:100D500003D0B0F5802F0ED106E0C449096841F4F4
:100D60008031C24A116007E0C049096841F4A021FE
:100D7000BE4A116000E000BF00BF704710B50146D9
:100D80000022002300204A11012A02D1B74C236817
:100D900006E0022A02D1B54C236A01E0B34C636A33
:100DA00001F01F02012494401C4201D0012000E008
:100DB000002010BD38B5002000900024002500BFA1
:100DC0003120FFF7DBFF05460098401C00901DB95D
:100DD0000098B0F5A06FF3D13120FFF7CFFF08B135
:100DE000012400E00024204638BD014600209F4A2F
:100DF000106820F0F80040EAC100106070479E497A
:100E00000860704702460020984B586820F47C1018
:100E100042EA01031843954B5860704796490866AB
:100E2000704701460020914A506820F003000843B3
:100E3000506070478D48406800F00C0070470146D4
:100E400000208A4A506820F0F00008435060704744
:100E500001460020854A506820F4E0600843506055
:100E6000704701460020814A506820F4605040EAF3
:100E7000C1005060704729B17C4A527A02437B4BD3
:100E80005A7204E0794A527A8243784B5A72704718
:100E90007A490860704701460020744A506820F47F
:100EA00040400843506070470021754A11706F4AF6
:100EB00082F82010012802D0042808D103E0012183
:100EC0006F4A117004E005216D4A117000E000BF07
:100ED00000BF70476B49086070476449096A014365
:100EE000624A11627047674944390860704730B5FB
:100EF00000210022002400235C4D6D6805F00C01E8
:100F000021B1042905D0082923D105E05E4D0560F3
:100F100022E05D4D05601FE0544D6D6805F47012D0
:100F2000022505EB9242514D6D6805F480341CB9E1
:100F3000564D554305600BE04C4D6D6815F4003F70
:100F400003D0524D5543056002E04F4D55430560B7
:100F500002E04D4D056000BF00BF444D6D6805F0D7
:100F6000F00109094A4D6B5C0568DD4045603F4D65
:100F70006D6805F4E061090A454D6B5C4568DD402C
:100F800085603A4D6D6805F46051C90A404D6B5C4F
:100F90004568DD40C560354D6D6805F44041890BFD
:100FA0003C4D6B5CC568B5FBF3F5056130BD29B1FF
:100FB0002E4A526902432D4B5A6104E02B4A526972
:100FC00082432A4B5A61704729B1284A92690243E9
:100FD000264B9A6104E0254A92698243234B9A6129
:100FE000704729B1214AD2690243204BDA6104E0FB
:100FF0001E4AD26982431D4BDA61704729B11B4AF0
:10100000D2680243194BDA6004E0184AD26882437E
:10101000164BDA60704729B1144A12690243134B28
:101020001A6104E0114A12698243104B1A61704739
:1010300014494039086070470F49C86470470B492C
:10104000C87170470948406A40F08070074948629B
:10105000704701460020054A92680A4201D00120EB
:1010600000E000207047014988727047001002407C
:101070000000FFF8FFFFF6FE00004242D8004242A7
:10108000201002408004424200127A0000093D0014
:101090000C0000201C00002031490143314A11603E
:1010A000704770B5002100230F22C4780CB32D4C7B
:1010B000246804F4E064C4F5E064210AC1F1040387
:1010C000CA40447804FA03F18478144021430901AA
:1010D000254C0678A155047804F01F050124AC4086
:1010E00005786D114FF0E02606EB8505C5F8004147
:1010F00009E0047804F01F050124AC401B4D06787C
:10110000761145F8264070BD194A0A400243154B36
:101110001B1F1A60704739B1124A121D1268024330
:10112000104B1B1D1A6006E00E4A121D1268824306
:101130000C4B1B1D1A607047042808D14FF0E021AA
:10114000096941F004014FF0E022116107E04FF01E
:10115000E021096921F004014FF0E022116170479C
:101160000000FA050CED00E000E400E080E100E0A2
:1011700080FFFF1F002046490860091D0860091D07
:101180000860091D086043484149143108607047F0
:10119000817900293ED03E490968026891433C4A62
:1011A0001160111D096802689143394A121D1160CE
:1011B0000179121F8958026811430279344BD150CA
:1011C00033490831096802689143314A0832116095
:1011D000111D0968026891432D4A0C321160417952
:1011E00010290ED1111F096802681143284A0832DC
:1011F0001160111D096802681143254A0C32116003
:1012000010E04179224A8958026811434279204B03
:10121000D15007E001791E4A89580268914302794A
:101220001B4BD15070470021016001710C214171AD
:101230000021817170471649103109680143144A31
:1012400010321160704701460020114A14321268B2
:101250000A4201D0012000E0002070470C491431FF
:1012600008607047014600200022094B1B6803EA12
:101270000102074B14331B680B4202D00AB1012054
:1012800000E00020704702491431086070470000F8
:1012900000040140FFFF070010B501210807FFF718
:1012A000BAFE00214FF08050FFF7B5FE10BD264971
:1012B0000862704724490861704701460020234AAC
:1012C000106820F0E0000843106070472049086073
:1012D000704710B5024600201C4B186820F0030030
:1012E000104318601B4B1B6843F00403194C236028
:1012F000012901D130BF00E020BF10BD13480068B4
:1013000040F00400114908600846006840F00200FF
:1013100008601048006840F004000E49086000BFF3
:1013200000BF30BF704701460020084A52680A4299
:1013300001D0012000E0002070470449096841EA1B
:101340008001024A1160704700000E4200700040A8
:10135000A0000E4210ED00E010B50446F74820183A
:1013600006D0B0F5806F0DD0B0F5C05F1ED113E090
:1013700001214802FFF742FE00214FF40070FFF701
:101380003DFE14E001218802FFF738FE00214FF4F2
:101390008060FFF733FE0AE00121C803FFF72EFE4D
:1013A00000214FF40040FFF729FE00E000BF00BF1E
:1013B00010BD30B50246002000235068E04C2040AC
:1013C0000D790C6844EA0524204350609068DD4C98
:1013D0002040D1E902542C434D7944EA450420438E
:1013E0009060D06A20F470000C7C641E1C43E3B251
:1013F00040EA0350D06230BD0021016001714171AB
:101400008160C16001210174704721B1826842F09E
:101410000102826003E0826822F00102826070476C
:1014200021B1826842F48072826003E0826822F413
:1014300080728260704710B50023CBB21AB1446845
:101440001C43446002E044689C43446010BD8168D2
:1014500041F0080181607047014600208A6812F05F
:10146000080F01D0012000E000207047816841F0A2
:10147000040181607047014600208A6812F0040F61
:1014800001D0012000E00020704721B1826842F4C1
:10149000A002826003E0826822F4A00282607047AA
:1014A000014600208A6812F4800F01D0012000E07C
:1014B0000020704710B50A4600210023416821F43E
:1014C0006041531E41EA4331416010BD21B1426881
:1014D00042F40062426003E0426822F4006242602B
:1014E0007047F0B504460D4600200021092D11DD9E
:1014F000E068A5F10A0606EB4607072606FA07F19B
:101500008843A5F10A0606EB460603FA06F10843EE
:10151000E0600CE0206905EB4507072606FA07F1B5
:10152000884305EB450603FA06F108432061072AC4
:101530000FDA606B561E06EB86071F2606FA07F1C8
:101540008843561E06EB860605FA06F108436063DB
:1015500022E00D2A0FDA206BD61F06EB86071F2626
:1015600006FA07F18843D61F06EB860605FA06F150
:101570000843206310E0E06AA2F10D0606EB86073F
:101580001F2606FA07F18843A2F10D0606EB860630
:1015900005FA06F10843E062F0BD21B1826842F429
:1015A0008012826003E0826822F4801282607047B9
:1015B0000146C86C80B2704763480068704721B12B
:1015C000426842F48062426003E0426822F4806232
:1015D0004260704721B1426842F48052426003E0A9
:1015E000426822F48052426070470A4600218168B6
:1015F00021F4E04111438160704721B1826842F4D7
:101600000042826003E0826822F4004282607047F8
:1016100021B1826842F40212826003E0826822F4FF
:10162000021282607047014600208A6812F4001F8F
:1016300001D0012000E000207047F0B504461546B7
:10164000002000220026092911DDE068A1F10A0727
:1016500007EB470C072707FA0CF29043A1F10A07A2
:1016600007EB470703FA07F21043E0600CE020693C
:1016700001EB410C072707FA0CF2904301EB4107FD
:1016800003FA07F210432061A06BC0F30156EF1C70
:1016900006F1010CA7EB0C0707EB870C1F2707FAD5
:1016A0000CF29043EF1C06F1010CA7EB0C0707EBC3
:1016B000870701FA07F21043A063F0BD10B50A4690
:1016C00000210023816B21F44011531E41EA035194
:1016D000816310BD4250704702465018806A80B244
:1016E00070470A4600214168184B19401143416078
:1016F00070474162826270470A460021416821F0CA
:101700001F0111434160704740B10F4944390968D6
:1017100041F400010C4A443A116007E00A49443997
:10172000096821F40001084A443A116070470246F2
:10173000002013680B420BD001200AE000DCFEBF42
:10174000FFFEF0FFFDF7F1FF4C240140FFFD3FFFDE
:1017500000207047CA430260704770B502460020FF
:10176000002300240B125568CEB205EA0604156862
:101770001D4202D00CB1012000E0002070BD00220B
:101780000A12D34303607047016821F00101016030
:101790000021016041608160C160864A811A9042E7
:1017A0005BD012DC844AA0EB020190423AD007DC05
:1017B000824941181BD0142922D028297AD128E047
:1017C000142938D0282975D13EE0B1F56C7F5BD063
:1017D00006DCB1F5627F49D0B1F5677F6AD14CE094
:1017E000B1F5717F57D0B1F5767F63D15BE0724977
:1017F0004439496841F00F016F4A443A51605AE058
:101800006D494439496841F0F0016B4A443A5160EE
:1018100051E069494439496841F47061664A443A83
:10182000516048E064494439496841F47041624A72
:10183000443A51603FE060494439496841F47021BD
:101840005D4A443A516036E05B494439496841F4A5
:101850007001594A443A51602DE05749443949686A
:1018600041F07061544A443A516024E05449096897
:1018700041F00F01524A11601DE05149096841F0E1
:10188000F0014F4A116016E04D49096841F470615A
:101890004B4A11600FE04A49096841F47041484AD7
:1018A000116008E006E04649096841F47021444AA5
:1018B000116000E000BF00BF704710B50022026851
:1018C00047F6F0739A430C6A8B6823430C692343F1
:1018D0004C6923438C692343CC6923434C6A2343DB
:1018E0008C6A23431A430260CB6843600B688360B1
:1018F0004B68C36010BD0021016041608160C16020
:10190000016141618161C16101624162816270472F
:1019100021B1026842F00102026003E0026822F095
:101920000102026070471AB103680B43036002E0D2
:1019300003688B43036070470146486880B2704774
:1019400001460020002211F0805F03D01C4B1B1FBA
:101950001A6802E0184B443B1A680A4201D0012081
:1019600000E00020704710F0805F02D0144908604A
:1019700002E01149443948607047014600200022C6
:1019800011F0805F03D00E4B1B1F1A6802E00A4B58
:10199000443B1A680A4201D0012000E00020704751
:1019A00010F0805F02D00649086002E00249443925
:1019B000486070478000024044000240F8FFFDBFCD
:1019C0000404024010B50446D749601A8C422BD05B
:1019D00006DCD648201813D0B0F5806F38D119E056
:1019E000B0F5806F2AD0B0F56C4F31D1012188035A
:1019F000FFF704FB00214FF48040FFF7FFFA28E0D7
:101A000001214804FFF707FB00214FF40030FFF7E6
:101A100002FB1EE001218804FFF7FDFA00214FF4CC
:101A20008020FFF7F8FA14E00121C804FFF7F3FA69
:101A300000214FF40020FFF7EEFA0AE0012108052B
:101A4000FFF7E9FA00214FF48010FFF7E4FA00E015
:101A500000BF00BF10BD2DE9F04786B005460E4619
:101A60000024A24600BF00BF00272F462C8A4CF658
:101A7000FF700440F08804432C82AC894EF6F310CA
:101A80000440B08831890843718908430443AC811C
:101A9000AC8A4FF6FF400440B0890443AC8201A8F1
:101AA000FFF725FAA248874202D1DDF810A001E035
:101AB000DDF80CA00AEBCA0000EB0A1031688900BF
:101AC000B0FBF1F86420B8FBF0F0040120096421B8
:101AD00001FB1089322000EB0910B0FBF1F000F09F
:101AE0000F0004432C8106B0BDE8F0874FF4165177
:101AF000016000218180C18001810C214181002190
:101B00008181704710B502460020108A4FF2FF0312
:101B100018400B884C8823438C882343CC8823436C
:101B20001843108210BD0021018041808180C18056
:101B3000704721B1828942F40052828104E0828997
:101B40004DF6FF731A4082817047F0B503460024BA
:101B50000026002500201846C1F3421401F01F069C
:101B6000012707FA06F5012C01D10C3004E0022C04
:101B700001D1103000E014301AB107682F4307601C
:101B800002E00768AF430760F0BD1AB1838A0B43D8
:101B9000838202E0838A8B4383827047028A4FF6F6
:101BA000F0731A400282028A0A43028270478289D5
:101BB0004FF2FF731A40828182890A438281704703
:101BC00021B1828942F00202828104E082894FF6CB
:101BD000FD731A4082817047028A4FF6DF731A4004
:101BE0000282028A0A430282704721B1028A42F4C9
:101BF0008042028204E0028A4BF6FF731A4002829E
:101C00007047C1F308028280704701468888C0F39C
:101C100008007047818941F0010181817047028B82
:101C2000D2B20283028B42EA012202837047028B06
:101C300002F47F420283028B0A430283704721B180
:101C4000828A42F02002828204E0828A4FF6DF73A9
:101C50001A408282704721B1828A42F01002828249
:101C600004E0828A4FF6EF731A408282704721B1F6
:101C7000828A42F00802828204E0828A4FF6F77379
:101C80001A4082827047828A4FF6FB731A40828222
:101C9000828A0A438282704721B1828A42F002021C
:101CA000828204E0828A4FF6FD731A408282704776
:101CB0000246002013880B4201D0012000E00020E2
:101CC0007047CA430280704770B502460B46002435
:101CD000002100250020C3F3421503F01F01012657
:101CE00006FA01F1012D02D19689314006E0022D5C
:101CF00002D1168A314001E0968A31401C12012639
:101D000006FA04F41688344011B10CB1012000E049
:101D1000002070BD10B5002200230A120124944057
:101D2000A3B2DC43048010BD004C004000BCFFBFE8
:101D3000003801400CB50020019000904748006831
:101D400040F480304549086000BF4448006800F412
:101D5000003000900198401C0190009818B901983B
:101D6000B0F5A06FF1D13D48006810F4003F02D0FB
:101D70000120009001E0002000900098012843D14C
:101D80003748006840F01000354908600846006890
:101D900020F0030008600846006840F00200086078
:101DA0002E4840682D49486008464068486008460B
:101DB000406840F4806048600846406820F47C1029
:101DC00048600846406840F4E810486008460068EB
:101DD00040F08070086000BF2048006810F0007F6D
:101DE000FAD01E48406820F003001C4948600846AD
:101DF000406840F00200486000BF1848406800F0AA
:101E00000C000828F9D101E000BFFEE70CBD10B5B9
:101E1000FFF790FF10BD10B51048006840F00100BA
:101E20000E490860084640680E4908400B49486062
:101E3000084600680C4908400849086008460068E0
:101E400020F4802008600846406820F4FE004860C6
:101E500000208860FFF7DBFF10BD0000001002408B
:101E6000002002400000FFF8FFFFF6FE70470B481D
:101E700080470B4981F308880A480047FEE7FEE7E0
:101E8000FEE7FEE7FEE7FEE7FEE7FEE7FEE7FEE72A
:101E900005480649044A064B704700006D1E0008BD
:101EA000F048002031010008F0460020F0480020F2
:101EB000F046002000F1080141604FF0FF318160E1
:101EC00000F10801C160016100210160704700213B
:101ED0000161704742684A6093688B6093685960FB
:101EE0009160086103685B1C0360704710B502468F
:101EF0000B685C1C01D1106907E002F1080000E0EA
:101F00004068446824689C42FAD944684C604C6834
:101F1000A160886041600A611468641C146010BD8F
:101F200001460A69D1E901309860D1E9010358609E
:101F30005068884201D188685060002008611068AC
:101F4000401E10601068704710B5002407E004EBD5
:101F50008401F74A02EB8100FFF7ACFF641C052CFB
:101F6000F5D3F448FFF7A6FFF348FFF7A3FFF348C4
:101F7000FFF7A0FFF248FFF79DFFF248FFF79AFF37
:101F8000EC48F1490860EC48F049086010BD2DE9C3
:101F9000F04704460F4616469946DDF82080002596
:101FA00007E0795D04F134004155785D00B902E045
:101FB0006D1C102DF5D300BF002143200155052EC7
:101FC00000D30426E662201DFFF781FF04F118000C
:101FD000FFF77DFF2461C6F10500A0616462002067
:101FE000606484F84800BDE8F0872DE9F0410646BA
:101FF0000F461FB9B00000F0BAFF00E038460546B2
:1020000055B14C2000F0B3FF04460CB1256304E049
:10201000284600F0FFFF00E000242046BDE8F081E4
:102020002DE9FF4F81B0804615469946DDE90E7ACD
:1020300028461099FFF7D9FF0446002C4FD0681EA0
:10204000216B01EB800B2BF0070B00953A462046E5
:10205000119B0299FFF79BFF4A464146584600F004
:102060000BFF2060BAF1000F01D0CAF8004000F069
:1020700037FFB7480068401CB5490860B54800689C
:1020800040B9B44804600846006801280CD1FFF745
:102090005BFF09E0B048006830B9AE480068C06A2C
:1020A000B84201D8AB480460AC480068401CAB495A
:1020B000086094F82C1001208840A9490968084359
:1020C000A7490860E16A01EB8101994A02EB8100AE
:1020D000211DFFF7FFFE012600F00FFF01E04FF08A
:1020E000FF36012E09D19C48006830B1994800683C
:1020F000C06AB84201D200F0E9FE304605B0BDE842
:10210000F08F91490968096809B9012100E00021AF
:1021100021B14FF0FF31934A116006E08A49096806
:10212000C968C8688F4A41681160704770B5054634
:1021300000F0D6FE15B98748006800E0284604463E
:10214000201DFFF7EDFE78B9E06A00EB80007849CA
:1021500051F8200040B994F82C10012088408049A3
:10216000096881437E480160A06A18B104F1180033
:10217000FFF7D6FE211D7248FFF7ACFE7A480068D3
:10218000401C7949086075480068401C7349086024
:1021900000F0B3FE7048006860B16E480068844289
:1021A00002D100F093FE05E000F09AFEFFF7A9FFD0
:1021B00000F0A3FE70BD2DE9F04100276B480068D8
:1021C000002865D16A480068401C694908600846D3
:1021D00006688EB95C48D0F800805C4800685A49AF
:1021E00008605A48C0F8008062480068401C614995
:1021F0000860FFF786FF00BF5A48006886423BD35D
:1022000000BF51480068006808B9012000E00020C4
:1022100020B14FF0FF30534908602CE04A48006875
:10222000C068C4686568AE4202D24E48056022E0CC
:10223000201DFFF775FEA06A18B104F11800FFF722
:102240006FFE94F82C100120884045490968084326
:1022500043490860E16A01EB8101354A02EB8100E4
:10226000211DFFF737FE3B49E06A0968C96A8842C9
:10227000C7D30127C5E700BF36480068C06A00EB36
:1022800080002B4951F82000012806D9012704E0DD
:1022900039480068401C384908603848006800B177
:1022A00001273846BDE8F08170B5002500F018FE22
:1022B0002E480068401E2D49086008460068002826
:1022C00074D123480068002870D024E01B48C068FF
:1022D000C46804F11800FFF723FE201DFFF720FE5D
:1022E00094F82C10012088401D49096808431C49B6
:1022F0000860E16A01EB81010D4A02EB8100211DBA
:10230000FFF7E8FD1349E06A0968C96A884202D309
:1023100001201A4908600948006808B9012000E056
:1023200000200028D2D01448006800B133E036E025
:10233000A80100200C02002020020020340200200E
:10234000480200205C0200205000002054000020C1
:10235000280000202000002034000020440000203D
:102360003000002048000020240000204C00002005
:102370002C00002040000020380000203C000020FD
:10238000FFF719FF10B10120FE490860FE48006800
:10239000401EFD490860FC4800680028F0D1F9485B
:1023A0000068012802D1012500F090FD00F0A5FD94
:1023B000284670BD10B50446F44800684460F448EF
:1023C0000068844207D2F1480168091DF14800689D
:1023D000FFF78CFD0CE0ED480168091DEE48006830
:1023E000FFF784FDED480068844201D2EB480460A9
:1023F00010BDEB480068401CE949086070472DE9B2
:10240000F047044688464FF00009FFF7F2FFE04826
:102410000768206800EB08052068B84207D92068E3
:10242000A8420BD9BD4209D94FF0010906E0206846
:10243000A84201D8BD4201D94FF001092560B9F188
:10244000000F13D0D1480068001DFFF769FD50B997
:10245000CE48006890F82C1001208840D1490968C6
:102460008143D04801602846FFF7A4FFFFF71CFF17
:1024700006460EB900F02AFDBDE8F08770B50446A7
:102480000026DCB1FFF7B5FFC14800680519BF4859
:102490000068001DFFF744FD50B9BC48006890F883
:1024A0002C1001208840BF4909688143BD48016064
:1024B0002846FFF77FFFFFF7F7FE06460EB900F04C
:1024C00005FD70BD70B5044600F00AFD14B9AF48B3
:1024D000006800E020460646F56A00F00EFD28463A
:1024E00070BD2DE9F0410446FDF7D8FE064614B94B
:1024F000A648006800E020460746FD6A3046FDF722
:10250000D4FE2846BDE8F0812DE9F04780460D460F
:102510004FF00009052D00D3042500F0E1FCB8F1CF
:10252000000F02D19948006800E040460446E66A80
:10253000AE424BD0B5420BD99448006884420DD0CE
:1025400092480068C06AA84208D84FF0010905E027
:102550008E480068844201D14FF00109E76AE562C4
:10256000A06910F0004F02D1C5F10500A06107EB92
:1025700087018D4A02EB81016069884201D1012007
:1025800000E00020E0B1201DFFF7CAFC30B90120B7
:10259000B8408449096881438248016094F82C104E
:1025A000012088407F49096808437E490860E16A44
:1025B00001EB81017C4A02EB8100211DFFF78AFCBF
:1025C000B9F1010F01D100F081FC00BF00F095FCD2
:1025D000BDE8F0877248006818B1012069490860B9
:1025E0001DE00020674908606E480068B0FA80F07E
:1025F000C0F11F0101EB81026B4B03EB82004268CB
:102600005268426000F108024368934202D1426876
:10261000526842604268D2685C4B1A6000BF7047E3
:1026200070B5054600F05CFC15B95848006800E03C
:1026300028460446201DFFF773FC78B9E06A00EBDA
:102640008000594951F8200040B994F82C1001201D
:10265000884054490968814352480160A06A18B112
:1026600004F11800FFF75CFC211D5048FFF732FC15
:1026700000F043FC45480068844212D14C48006891
:1026800010B100F023FC15E048480068494909688A
:10269000884203D100203D4908600BE0FFF79AFF14
:1026A00008E04348006828B100F01AFCFFF729FD54
:1026B00000F023FC70BD10B5014600200A463B4CDB
:1026C0005369A34201D1012300E0002373B13A4CC6
:1026D000936AA34201D1012300E0002333B9936A36
:1026E0000BB9012300E0002303B1012010BD70B538
:1026F00005462C464CB325480068844225D000F09E
:10270000EFFB2046FFF7D7FF01281CD1201DFFF764
:1027100007FC94F82C1001208840224909680843DE
:1027200020490860E16A01EB81011F4A02EB810048
:10273000211DFFF7CFFB1549E06A0968C96A884285
:1027400001D300F0C3FB00F0D8FB70BD2DE9F041D0
:10275000054600262C46FDF7A1FD07462046FFF75B
:10276000AAFF012842D10E48006850B90749E06A23
:102770000968C96A884200D30126201DFFF7D0FBF3
:102780001CE02EE03C00002038000020200000204B
:102790002C000020540000205000002048000020A1
:1027A0004C00002030000020A80100205C02002026
:1027B00034000020280000203402002094F82C105F
:1027C00001208840FE4909680843FD490860E16A24
:1027D00001EB8101FB4A02EB8100211DFFF77AFB2F
:1027E00004E004F11801F848FFF774FB3846FDF7E0
:1027F0005CFD3046BDE8F08110B50446206B00F06A
:1028000009FC204600F006FC10BD70B523E0FFF780
:10281000F0FDEE48006808B9012000E00020054600
:10282000FFF742FDBDB900F05BFBE848C068C46833
:10283000201DFFF775FBE6480068401EE44908606C
:10284000E4480068401EE349086000F056FB20465B
:10285000FFF7D2FF00BFDF4800680028D7D170BD66
:1028600000BFFFF7D2FFD74800680128F9D900F070
:102870002DFBF6E71FB50020009001900290034663
:102880008022D5A10390D648FFF7CAFB0446012C4D
:1028900009D1FDF703FD0120D24908600020D2498B
:1028A000086000F0FDFA1FBD10B5FDF7F7FC002031
:1028B000CC49086000F009FB10BDCB49086870479F
:1028C0000021C94A10687047C1480068704770B558
:1028D00006460C46C548016818313046FFF706FB2E
:1028E000C2480068001DFFF71BFB50B9BF480068D5
:1028F00090F82C1001208840B14909688143B04804
:102900000160601C06D1B9480168091DB848FFF78D
:10291000E1FA05E0B448006805192846FFF74AFDCA
:1029200070BD2DE9F04107460D46144645F00040C4
:10293000AE4909688861AD48016818313846FFF72B
:10294000C9FAAA480068001DFFF7EAFA50B9A7487B
:10295000006890F82C10012088409949096881434B
:1029600097480160601C06D1A0480168091DA04875
:10297000FFF7B0FA05E09C48006806193046FFF7FB
:1029800019FDBDE8F08170B50646F068C46804F131
:102990001800FFF7C5FA97480068A8B9201DFFF78F
:1029A000BFFA94F82C100120884085490968084333
:1029B00083490860E16A01EB8101824A02EB8100F0
:1029C000211DFFF787FA04E004F118017E48FFF7A4
:1029D00081FA8649E06A0968C96A884204D90125F2
:1029E00001208549086000E00025284670BD2DE9DA
:1029F000F04105460F4647F000402860EC68284645
:102A0000FFF78EFA201DFFF78BFA94F82C100120A7
:102A100088406B490968084369490860E16A01EB2D
:102A20008101684A02EB8100211DFFF753FA6F49CB
:102A3000E06A0968C96A884204D9012601206E4902
:102A4000086000E000263046BDE8F0816B49096867
:102A50000160654909684160704770B504460D46DC
:102A600000F03EFA604802682868401C01D1002648
:102A700019E0624920680968884204D06068904281
:102A800001D801260FE06068101A2968884209D22F
:102A900028686168511A401A28602046FFF7D6FF5F
:102AA000002600E0012600F028FA304670BD012023
:102AB0005149086070474D49096888694B49096860
:102AC000C96AC1F10501494A1268916170472DE94F
:102AD000F04106460C4600F003FA44480068406C9A
:102AE00038BB01204149096881F848000CB33F48D0
:102AF0000068001DFFF714FA50B93C48006890F8D0
:102B00002C10012088402E49096881432C4801601F
:102B1000601C06D135480168091D3548FFF7DAF910
:102B200005E03148006807193846FFF743FC00F01C
:102B3000CDF900F0E2F900F0D3F92C480068456CBB
:102B400065B126B1002029490968486406E0274993
:102B5000096801F14400496C491E016000202349C5
:102B6000096881F8480000F0C8F92846BDE8F081FE
:102B70002DE9F0470746884615461C4600F0B0F997
:102B80001A48006890F84800022852D0174909688E
:102B900001F14400496CB9430160012013490968FF
:102BA00081F8480064B311480068001DFFF7B8F9C8
:102BB00038BB0E48006890F82C100120884021E0B6
:102BC00030000020A801002034020020480200202C
:102BD000280000202400002049444C45000000004B
:102BE00061280008340000202C0000202000002074
:102BF0005C0200204C0000203C000020400000202F
:102C000017E004E093490968814392480160601C21
:102C100006D191480168091D9048FFF75BF906E06D
:102C20008F48006800EB04094846FFF7C3FB00F03B
:102C30004DF900F062F900F053F91DB186480068C3
:102C4000406C28608448006890F84800012801D151
:102C5000002608E08049096801F14400496C21EA36
:102C600008010160012600207B49096881F84800BD
:102C700000F043F93046BDE8F0872DE9F0470546FE
:102C80000E4617464FF001092C4600F029F994F83A
:102C90004880022084F84800052F17D2DFE807F0AB
:102CA0001503070B0D00606C304360640EE0606C30
:102CB000401C60640AE0666408E0B8F1020F01D0CD
:102CC000666401E04FF0000900E000BF00BFB8F10A
:102CD000010F1CD1201DFFF723F994F82C100120BF
:102CE00088405C49096808435A490860E16A01EB79
:102CF00081015C4A02EB8100211DFFF7EBF8564988
:102D0000E06A0968C96A884201D900F0DFF800F07A
:102D1000F4F84846BDE8F0872DE9F05F05460E4619
:102D2000174698464FF0010A2C46FDF7B7FA83463E
:102D300094F84890022084F84800052F17D2DFE865
:102D400007F01503070B0D00606C304360640EE064
:102D5000606C401C60640AE0666408E0B9F1020F30
:102D600001D0666401E04FF0000A00E000BF00BF40
:102D7000B9F1010F29D13C480068A8B9201DFFF71F
:102D8000CFF894F82C100120884032490968084394
:102D900030490860E16A01EB8101324A02EB8100AF
:102DA000211DFFF797F804E004F118012F48FFF701
:102DB00091F82949E06A0968C96A884205D9B8F1D9
:102DC000000F02D00120C8F800005846FDF76DFA48
:102DD0005046BDE8F09F2DE9F04105460E462C46D1
:102DE000FDF75CFA804694F84870022084F84800A9
:102DF000606C401C6064012F26D11B480068A8B994
:102E0000201DFFF78DF894F82C10012088401149FF
:102E1000096808430F490860E16A01EB8101114A22
:102E200002EB8100211DFFF755F804E004F11801C1
:102E30000E48FFF74FF80849E06A0968C96A8842F6
:102E400002D90EB1012030604046FDF72EFABDE8F0
:102E5000F081000030000020200000205C020020F3
:102E60002C000020A80100204C000020340200208B
:102E7000FDF714FA00BFFEE7001F4FF080730360F8
:102E8000001F0160001F2B4B0360143802602038C4
:102E9000704729484FF0E0214861072008617047DA
:102EA00010B52648006840F47F00244908600846B1
:102EB000006840F07F400860FFF7EBFF00202049EA
:102EC0000860FDF7B9F9002010BD70474FF0805041
:102ED0001A491C390860BFF34F8FBFF36F8F7047DB
:102EE00010B5FDF7DBF916480068401C144908606E
:102EF000BFF34F8FBFF36F8F10BD10B51048006840
:102F0000401E0F4908600846006810B90020FDF710
:102F1000CCF910BD10B5FDF7C1F9FFF74CF920B1A0
:102F20004FF0805005491C3908600020FDF7BDF9BD
:102F300010BD0000712E00083F19010020ED00E0D7
:102F400058000020434A22F00700434A1060002244
:102F5000414B5A6044F2F832404B5A6000221A60EA
:102F6000014644F2F8324A601A460A6070472DE979
:102F7000F04104464FF00008FFF73BFA384800687C
:102F800020B9FFF7DFFF01203549086044B108345C
:102F900014F0070F04D004F00700C0F10800044447
:102FA000002C32D044F2F83084422ED22A4F3846D8
:102FB000056801E02F462D686868A04202D22868A3
:102FC0000028F7D1254885421FD0386800F108084D
:102FD000286838606868001B102810D92E196868A6
:102FE000001B70606C6071681B4800E0006802683C
:102FF00052688A42FAD302683260066000BF1949FB
:1030000068680968081A17490860FFF74DF94046D3
:10301000BDE8F08170B506463546B6B1083D2C4690
:10302000FFF7E7F961680C4800E000680268526841
:103030008A42FAD30268226004600A49606809681B
:10304000084408490860FFF72FF970BD054800687B
:103050007047704778020020640000206C00002058
:10306000600000205C00002010B504462CB901204F
:10307000FE4909680882002010BDFD4909680868FA
:103080008047FA4800680A30F6E710B5F74800684C
:10309000C078F8494978884213DCF44800688078A1
:1030A00078B9F2480068808858B9F0480068C0785C
:1030B000EE4909688872EE4909684868804700202F
:1030C00010BD0220FCE710B504462CB90120E749E9
:1030D00009680882002010BDE549096888688047B2
:1030E000E24800680C30F6E710B5E04B1B68D97871
:1030F000DE4B1B685879E04B1B689A699047044681
:10310000DA480068807AE8B13CB9D84800680079AC
:1031100018B9D6480068807808B1022010BD8CB973
:10312000D3490968C8688047D04800684079CF49CA
:103130000968C872CD480068C078CC49096808732E
:103140000020EBE70220E9E710B504462CB9022085
:10315000C64909680882002010BD0020C7490880C0
:10316000C2480068007810F07F0F1CD1BF49096881
:10317000487A10F0200F05D0C049097841F00201CB
:10318000BE4A117010F0400F06D0BC49097801F01A
:10319000FE01BA4A117005E0B849097841F0010111
:1031A000B64A117036E0B1480068007800F07F0040
:1031B000012801D1B148CFE7AC480068007800F0A1
:1031C0007F00022824D1A94A1268517901F00F002A
:1031D00011F0800F0DD0AA4A52F8202002F03002E0
:1031E000102A14D1A54A127842F00102A34B1A709A
:1031F0000DE0A34A52F8202002F44052B2F5805F5D
:1032000005D19E4A127842F001029C4B1A7001E0EF
:103210000020A1E7964909680869804797489BE71D
:103220002DE9F04791480068007800F07F08B8F178
:10323000000F0AD18D480068407A00F0DF008B490A
:10324000096848720020BDE8F087B8F1020F76D116
:1032500086480068408818B984480068007908B139
:103260000220F0E7DFF80C9280480068477927F0E9
:1032700080052C467D480068407910F0800F05D00D
:103280007F4850F8240000F0300604E07C4850F8F5
:10329000240000F4405699F80000A84204D91EB159
:1032A00072480068807A08B90220CCE717F0800FD6
:1032B0000ED0734850F8240000F03000102837D1A9
:1032C000E0B200F0D1FFE0B2302100F09EFE2FE02E
:1032D0006B4850F8240000F44050B0F5805F27D1CF
:1032E000A4B9684A92F82C10E0B201F042F864499F
:1032F00051F824104BF68F7201EA020080F48050DE
:1033000080F400505E4941F8240011E0E0B200F082
:1033100096FF5B4951F824104BF68F7201EA0200C8
:1033200080F4805080F40050554941F8240000BFDB
:103330004F49096848698047002084E7FFE700BFDC
:10334000022080E72DE9F04148480068467926F0E0
:1033500080073C4645480068407910F0800F05D052
:10336000474850F8240000F0300504E0444850F885
:10337000240000F440553F480078A04208D93B485B
:103380000068408820B91DB138480068807A10B9BB
:103390000220BDE8F08116F0800F0CD0384951F8BA
:1033A000241048F6BF7201EA020080F01000344990
:1033B00041F824000CE0324951F824104BF68F728A
:1033C00001EA020080F480502D4941F8240000BF3A
:1033D00027490968886980470020DAE710B5234843
:1033E0000068407A40F0200020490968487220496E
:1033F0000968C8698047002010BD10B502461B4807
:103400000068438A32B98888C01A184C2468208220
:10341000002010BD08681844FBE72DE9F04113486F
:10342000006800F110042688A068C0B1BEB1A5886C
:10343000B54200D93546A8B2A1688847074620881A
:10344000401B2080608828446080002000F05DFFE1
:103450008046AAB24146384600F078FD00BF208879
:10346000D8B14FF44050084908800FE07C0000209C
:1034700088000020F8000020800000207600002056
:10348000005C0040FC0000208C0000200021084669
:1034900000F048FF3020F94908802088A188884240
:1034A00004DB0320F6490968087218E02088002828
:1034B00004DD0520F2490968087210E0208870B91F
:1034C0000620EF49096808720021EE48006880B2C2
:1034D000801CED4A42F810103020E8490880BDE811
:1034E000F0812DE9F047E648006800F110052E88CC
:1034F000E3480068077AD6B9042F18D1E34800786A
:1035000001280FD10021DF48006880B2801CDE4A0C
:1035100042F810103020D949088000BF0020DB4954
:10352000087003E007271020D449088027E0AC8802
:10353000A64201D8042000E002200746B44200D988
:103540003446A0B2A96888478046002000F0D1FE2A
:103550008146A2B24946404600F0DEFCA1B20020FE
:1035600000F0E0FE2888001B2880688820446880DE
:103570003020C24908800002C549088000BFC04908
:1035800009680F72BDE8F08770B50226BC48006874
:103590004478BB480068007810F07F0F4AD1092CAE
:1035A00003D1FFF772FD064665E0052C14D1B4483F
:1035B0000068C0787F280BDCB1480068807838B993
:1035C000AF480068808818B9AD480068807A08B1B3
:1035D00008256BE000264EE0032C14D1A8480068B3
:1035E000C07801280DD1A6480068808848B9A44851
:1035F0000068407A10F0200F03D0FFF7EFFE064678
:1036000039E0022637E0012C35D19D480068C078AA
:1036100001280DD19A480068808848B99848006808
:10362000407A10F0200F03D0FFF7FAFD064622E0A3
:10363000022620E092480068007800F07F00012810
:1036400005D10B2C17D1FFF74FFD064613E08C4830
:103650000068007800F07F0002280BD1012C03D114
:10366000FFF7DEFD064606E0032C04D1FFF76AFEF5
:10367000064600E002264EB1E0B2864A1268516961
:1036800088470646032E01D109250FE00EB1082513
:103690000CE0062500217B48006880B2801C7A4A35
:1036A00042F8101030207549088000BF744909683D
:1036B0000D7270BD2DE9F84F7148006845780027FC
:1036C000BA46062D1AD16E480068007810F07F0FB8
:1036D00013D16B4909688878012803D16D490968BD
:1036E000CF690AE0022803D16A4909680F6A04E039
:1036F000032802D1674909684F6A97E0002D65D118
:103700005F4800684088002860D15D480068C08834
:1037100002285BD15A4800680079002856D15848E1
:103720000068007810F07F0F06D155480068808847
:1037300010B9AFF2EB5779E051480068007800F01B
:103740007F00012811D14E4909684879514909681B
:103750008A6900219047002868D149480068807A2A
:10376000002863D0AFF21F6760E04548006800782A
:1037700000F07F00022859D141480068407900F0EC
:103780000F063F480068407900F070093C48006827
:10379000407910F0800F06D03A48503850F8260093
:1037A00000F0300805E03748503850F8260000F4A3
:1037B000405839480078B04238D9B9F1000F35D1B6
:1037C000B8F1000F32D0AFF27F672FE0082D08D19B
:1037D0002B480068007810F07F0F27D1AFF2777781
:1037E00024E00A2D22D126480068007800F07F00EE
:1037F00001281BD122480068807AB8B120480068AF
:10380000408898B91E480068007978B91C4800685B
:10381000C08801280AD11A49096848791D490968F0
:103820008A690021904708B9AFF2657757B114480B
:103830000068A0F812A01248006887610020B8470D
:1038400000240FE00E4A12685078124A126811697B
:1038500088470446032C05D10920094909680872E4
:10386000BDE8F88F06480068008AA0F57F41FF395F
:1038700014D10920024909680872F1E78E0000207E
:103880007C000020505C004000600040740000207C
:103890008C00002080000020F8000020022C03D0C3
:1038A00099480068008A20B9082097490968087279
:1038B000D6E795480068007810F0800F3CD0924819
:1038C0000068C088009090480068008A009988428B
:1038D00004D98D4900980968088223E08A48006865
:1038E000008A89490968C98888421BDA86480068C5
:1038F000008A8649096891F82C10884203DA002072
:10390000834908700EE080480068008A7F49096892
:1039100091F82C1090FBF1F201FB120010B901207C
:103920007B4908707948006890F82C107648006848
:103930008182FFF7D6FD06E003207349096808720B
:1039400000037449088000BF8AE710B5724890F8F8
:103950002C10002000F00DFD6B480068007A08284C
:1039600005D140026B49088010206C4908806648E8
:103970000068007A092801D1012010BD0020FCE771
:1039800008B56748006880B2001D664931F810002C
:1039900080B201EB400000905B480068007A092883
:1039A0002FD0009800785849096808700098401C8A
:1039B0000090009800785449096848700098401CAD
:1039C00000900098801C0090009931F8020B009143
:1039D00000F06BFE4C49096848800098801C0090FC
:1039E000009931F8020B009100F05FFE464909682A
:1039F00088800098801C00900098008842490968DF
:103A0000C88001204049096808723F480068C088A2
:103A100010B9FFF7B9FD01E0FFF74CFEFFF795FF86
:103A200008BD30B50146404B1A7800200FE0C3B204
:103A30003B4C503C54F8233048F68F742340C4B2BA
:103A40002343C4B2364D503D45F82430401C9042CB
:103A5000EDD341F08003324C241F236030BD10B5FC
:103A600029480068047A022C01D0042C05D1FFF704
:103A700038FD25480068047A1CE0062C19D122483C
:103A80000068407805280ED11F480068007810F0C3
:103A90007F0F08D11C490968C878FFF7C2FF234986
:103AA0000968086A804719490968886880470824B6
:103AB00000E00824144909680C72FFF746FF10BDA6
:103AC00010B511480068047A032C01D0052C05D1EB
:103AD000FFF7A3FC0C480068047A0EE0072C05D120
:103AE0000A490968C8688047082406E0022C01D00A
:103AF000042C01D1082400E00824034909680C7251
:103B0000FFF723FF10BD70477C00002080000020DD
:103B1000740000208C000020FC0000208E0000209B
:103B2000505C004000600040F80000208800002049
:103B300010B508480849086002200968087207485B
:103B40000749086007480849086005490968086886
:103B5000804710BD704600207C000020FC00002043
:103B6000800000202C0100208800002010B50024D7
:103B700069E147F6FF70E1490860E148008800F01C
:103B80000F00E04908700846007800287DD1DB4826
:103B90004438006800F44050DB490880D748443876
:103BA000006800F03000D9490880D44944390968D8
:103BB0004BF68F7201EA020080F40050CF4944397D
:103BC0000860096848F6BF7201EA020080F0200030
:103BD000CA4944390860CA48008810F0100F38D12B
:103BE0000846006848F60F710840C4494439086027
:103BF000FFF735FFC149443909684BF68F7201EA76
:103C00000200C149098811F4805F01D080F480501E
:103C1000BD49098811F4005F01D080F40050B74914
:103C200044390860096848F6BF7201EA0200B749E2
:103C3000097811F0100F01D080F01000B349097815
:103C400011F0200F01D080F02000AC494439086009
:103C500010BDAA484438006884B214F0800F3BD0ED
:103C6000A6484438006848F60F710840A349443913
:103C70000860FFF7F4FEA149443909684BF68F72DA
:103C800001EA0200A049098800E0A3E011F4805F86
:103C900001D080F480509C49098811F4005F01D064
:103CA00080F40050954944390860096848F6BF72AD
:103CB00001EA02009549097811F0100F01D080F057
:103CC00010009249097811F0200F01D080F02000F7
:103CD0008A4944390860BBE714F4006F3BD0874839
:103CE00044380068C0F30E0048F68F7108408349DD
:103CF00044390860FFF744FE8049443909684BF6AF
:103D00008F7201EA02008049098811F4805F01D0B6
:103D100080F480507C49098811F4005F01D080F460
:103D20000050764944390860096848F6BF7201EAD4
:103D300002007649097811F0100F01D080F01000D0
:103D40007249097811F0200F01D080F020006B49F2
:103D5000443908607CE714F4004F74D06748443855
:103D60000068C0F30E0048F68F710840634944397B
:103D70000860FFF7A5FE6149443909684BF68F7268
:103D800001EA02006049098811F4805F01D080F4E3
:103D900080505D49098811F4005F01D080F4005023
:103DA000564944390860096848F6BF7201EA0200C2
:103DB0005649097811F0100F01D080F010005349D6
:103DC000097811F0200F01D080F020004B494439D0
:103DD00008603DE74B4800784849443951F82000D5
:103DE00084B214F4004F15D04648007851F82000F2
:103DF000C0F30E0048F68F710840424909783F4AE7
:103E0000443A42F821003F490978491E404A52F895
:103E10002100804714F0800F15D03A4800783749C8
:103E2000443951F8200048F60F71084035490978A7
:103E3000324A443A42F8210032490978491E354A4B
:103E400052F8210080472D48006880B22C49088034
:103E500010F4004F7FF48DAE00BFF9E610B50024DA
:103E600043E047F6FF70254908602548008800F0C8
:103E70000F0024490870084600782049443951F859
:103E8000200084B214F4004F16D01E48007851F878
:103E90002000C0F30E0048F68F71084019490978D8
:103EA000164A443A42F8210016490978491E184A30
:103EB00052F82100804718E014F0800F15D0114807
:103EC00000780E49443951F8200048F60F71084037
:103ED0000C490978094A443A42F82100094909780D
:103EE000491E0C4A52F8210080470448006880B2FD
:103EF0000349088010F4004FB3D110BD445C00406A
:103F0000F4000020780000208C0000208E000020AB
:103F1000D8000020BC000020F0B5144604F1010CCC
:103F20004FEA6C07DFF848C00CEB41033D460AE05E
:103F30000678401C90F800C046EA0C2223F8022BB9
:103F40009B1C401C6D1E002DF2D1F0BDF0B5561C1F
:103F50007510074E06EB41042B4605E034F8047B50
:103F600020F8017B401C5B1E002BF7D1F0BD000048
:103F700000600040F84908607047F748006880B268
:103F80007047F549091D08607047F348001D006837
:103F900080B27047F0480830006880B27047EE4940
:103FA0000C3108607047EC480C30006880B27047F4
:103FB0004FF6F8710140E84A103211607047E64848
:103FC0001030006880B27047E34A403A42F820104F
:103FD00070470146E048403850F8210080B27047F1
:103FE000DD4A403A52F8202048F68F131A400A431F
:103FF000D94B403B43F8202070470146D648403813
:1040000050F8210000F4C060704710B5D24B403B1F
:1040100053F8203048F6BF7403EA040211F0100F81
:1040200001D082F0100211F0200F01D082F02002A6
:10403000C94B403B43F8202010BD10B5C64B403B58
:1040400053F820304BF68F7403EA040211F4805FBA
:1040500001D082F4805211F4005F01D082F400524A
:10406000BD4B403B43F8202010BD10B502460B4627
:104070001046FFF7AEFF0446012B06D124F4805012
:10408000B549403941F8220007E0022B05D124F060
:104090001000B149403941F8220010BD0146AE4838
:1040A000403850F8210000F0300070470146AA481F
:1040B000403850F8210000F440507047A64A403A7A
:1040C00052F8202048F6BF7302EA030181F0100184
:1040D00081F02001A04A403A42F8201070479E4AE1
:1040E000403A52F820204BF68F7302EA030181F424
:1040F000805181F40051984A403A42F820107047AC
:104100009549403951F8201041F4807148F68F727A
:104110001140914A403A42F8201070478E49403988
:1041200051F8201048F68F6211408B4A403A42F80D
:10413000201070478849403951F8201048F68F62A6
:104140001140854A403A42F8201070478249403970
:1041500051F8201041F4807148F68F7211407E4A68
:10416000403A42F8201070477B49403951F82010FE
:1041700041F4807148F68F721140774A403A42F814
:10418000201070477449403951F8201048F68F626A
:104190001140714A403A42F82010704701466E487B
:1041A000403850F8210000F03000102801D10120E3
:1041B00070470020FCE701466748403850F821006E
:1041C00000F44050B0F5805F01D10120704700201D
:1041D000FCE76149403951F82010C1F30E0148F65F
:1041E0008F7211405C4A403A42F8201070475A4999
:1041F000403951F8201048F60F721140564A403AA3
:1042000042F8201070475449403951F8201048F6C0
:104210008F72114041F480414F4A403A42F82010D9
:1042200070474D49403951F8201048F68F721140BF
:1042300041F04001484A403A42F820107047464950
:10424000403951F8201011F4804F0CD042494039C8
:1042500051F8201048F68F72114041F480413E4AD7
:10426000403A42F8201070473B49403951F820103D
:1042700011F0400F0CD03849403951F8201048F661
:104280008F72114041F04001334A403A42F8201009
:104290007047314A403A52F8202048F68F731A404E
:1042A0000A432D4B403B43F82020704701462A48E3
:1042B000403850F8210000F00F00704710B54A1048
:1042C0005300254A1032126892B202EBC002234C0E
:1042D00044F8123010BD10B54A1053001E4A103277
:1042E000126892B202EBC002121D1C4C44F812304C
:1042F00010BD014618481030006880B200EBC100C4
:10430000164A32F8100080B2704701461248103049
:10431000006880B200EBC100001D104A32F81000A6
:1043200080B270470C4A1032126892B202EBC0029F
:10433000921C0A4B43F81210704702463E290FDDCB
:10434000481111F01F0F01D1431E98B24FF40043E2
:1043500043EA802313600BE0405C004000600040B3
:10436000481011F0010F01D0431C98B28302136072
:10437000704710B50246D048006880B200EBC2001A
:10438000801DCE4C04EB40033E290BDD481111F09B
:104390001F0F01D1441EA0B24FF4004444EA802410
:1043A0001C6007E0481011F0010F01D0441CA0B2BE
:1043B00084021C6010BD0146BF48006880B200EB5B
:1043C000C100801CBD4A32F81000C0F309007047DC
:1043D0000146B948006880B200EBC100801DB74AB1
:1043E00032F81000C0F30900704730B54B105C0084
:1043F000B14B1B689BB203EBC003B04D45F81340B3
:1044000053105C00AC4B1B689BB203EBC0031B1D3D
:1044100045F8134030BD10B54A105300A64A126843
:1044200092B202EBC002A54C44F8123010BD10B598
:104430004A105300A04A126892B202EBC002121D49
:104440009E4C44F8123010BD01469B48006880B273
:1044500000EBC100994A32F8100080B27047014663
:104460009548006880B200EBC100001D934A32F805
:10447000100080B2704730B50B46012B1FD18E491A
:10448000096889B201EBC001891C8C4D05EB410420
:104490003E2A0BDD511112F01F0F01D14D1EA9B2A2
:1044A0004FF4004545EA8125256007E0511012F0E0
:1044B000010F01D04D1CA9B28D0225600AE0022B2C
:1044C00008D17D49096889B201EBC001891C7B4C88
:1044D00044F81120012B1FD17749096889B201EBFB
:1044E000C001891D754D05EB41043E2A0BDD5111BC
:1044F00012F01F0F01D14D1EA9B24FF4004545EA3D
:104500008125256007E0511012F0010F01D04D1CEC
:10451000A9B28D0225600AE0022B08D1664909681C
:1045200089B201EBC001891D644C44F8112030BDF3
:1045300030B5034601291FD15F48006880B200EB07
:10454000C300801C5D4D05EB40043E2A0BDD50117D
:1045500012F01F0F01D1451EA8B24FF4004545EAE5
:104560008025256007E0501012F0010F01D0451C96
:10457000A8B2850225600AE0022908D14E480068E9
:1045800080B200EBC300801C4C4C44F8102030BDBE
:1045900030B5034601291FD14748006880B200EBBF
:1045A000C300801D454D05EB40043E2A0BDD501134
:1045B00012F01F0F01D1451EA8B24FF4004545EA85
:1045C0008025256007E0501012F0010F01D0451C36
:1045D000A8B2850225600AE0022908D136480068A1
:1045E00080B200EBC300801D344C44F8102030BD75
:1045F00001463148006880B200EBC100801C2F4AA0
:1046000032F81000C0F30900704701462A480068DC
:1046100080B200EBC100801D284A32F81000C0F3C0
:104620000900704701462448006880B200EBC100D1
:10463000801D224A32F8100010F47C4F01D0012076
:1046400070471D48006880B200EBC100801C1B4A07
:1046500032F810008005800D01D00220F0E7002024
:10466000EEE701290DD1144A503A52F8202048F6BD
:104670008F731A4042F040020F4B503B43F820200A
:104680000EE002290CD10C4A503A52F8202048F68C
:104690008F731A4042F48042074B503B43F820206E
:1046A0007047024641EA022070470146CAB20B1227
:1046B00043EA022070470000505C00400060004068
:1046C00008B501214FF4FE70FCF77EFC4FF6FF7039
:1046D000ADF8000000208DF803006946D048FCF7D3
:1046E000DDF96946CF48FCF7D9F96946CE48FCF7B1
:1046F000D5F96946CD48FCF7D1F96946CC48FCF7B5
:10470000CDF96946CB48FCF7C9F96946CA48FCF7B8
:10471000C5F900214FF4FE70FCF756FC08BD08B542
:10472000FDF779FB01210807FCF75BFCFFF7C8FFE9
:1047300001210820FCF748FC4FF48040ADF8000050
:1047400003208DF8020014208DF803006946B54857
:10475000FCF7A4F901212020FCF736FC0121080216
:10476000FCF732FC4FF40040ADF8000048208DF813
:1047700003006946B048FCF791F90820ADF8000045
:104780006946AA48FCF78AF94FF48040ADF800006A
:104790006946A948FCF782F94FF40050ADF80000D3
:1047A0006946A548FCF77AF9012140F20110FCF7AF
:1047B0000BFC4FF48070ADF8000004208DF803006E
:1047C00069469D48FCF76AF908210620FCF76AFA59
:1047D0004FF4807099490860002008710C204871DE
:1047E000012088710846FCF7D3FC4FF48020FCF7C9
:1047F0004AFD4FF48020914908600820487101204B
:1048000088710846FCF7C4FC4FF48070FCF73BFD50
:1048100008BD10B50020FCF73BFB0121C805FCF7E3
:10482000E0FB10BD10B50320854908604FF480708F
:10483000FCF729FD01210846FCF74BFD10BD10B522
:10484000804C4FF48030FCF776FAFCF7B3FA7E49DF
:1048500008700120FCF7E2FA00BF3920FCF78EFA5D
:104860000028FAD00220FCF7DCFA00BFFCF7E2FADD
:104870000828FBD1A07A18B105207149086002E030
:1048800001206F49086010BD08B54FF4A060FCF727
:1048900003FC14208DF8000001208DF80100002099
:1048A0008DF8020001208DF803006846FCF7F9FB43
:1048B0002A208DF8000000208DF801008DF80200FC
:1048C00001208DF803006846FCF7EBFB17208DF8FC
:1048D000000002208DF8010000208DF80200012068
:1048E0008DF803006846FCF7DCFB08BD10B50446F4
:1048F0002CB14FF480414B48FCF77DF904E04FF4B4
:1049000080414848FCF775F910BD10B54FF40051CF
:104910004948FCF754F908B9032010BD4FF4804111
:104920004548FCF74CF908B90220F6E74FF400417E
:104930004148FCF744F908B90420EEE708213B4858
:10494000FCF73DF908B90120E7E70020E5E77CB571
:104950000546002000900190022415F0080F04D0B5
:1049600052200DF80400601CC4B215F0100F04D0E2
:1049700051200DF80400601CC4B215F0040F04D0DF
:1049800050200DF80400601CC4B215F0020F04D0D2
:104990004F200DF80400601CC4B215F0200F04D0A5
:1049A00039200DF80400601CC4B215F0400F04D08B
:1049B00053200DF80400601CC4B215F0010F02D0A2
:1049C00028200DF804000120FFF793FC064608227A
:1049D00031466846FFF7A0FA0120FFF76FFB7CBD68
:1049E00010B51A4B18681B1D19681B1D1A68A8B151
:1049F000174CA070030A2371030CA371030E2372DA
:104A0000A1720B0A23730B0CA3730B0E2374A274F5
:104A1000130A2375130CA375130E237610BD000023
:104A200000080140000C014000100140001401404A
:104A300000180140001C01400020014094000020AB
:104A4000940100207046002090000020E8F7FF1F2E
:104A50009C00002010B53748006837490880084698
:104A6000008800F4806035490988084206D04FF676
:104A7000FF30304908603249486880472E48008836
:104A800000F400502D490988084203D04DF6FF700C
:104A9000284908602848008800F480502749098880
:104AA000084206D04EF6FF7022490860002000F050
:104AB000ACF92148008800F40060204909880842C8
:104AC0000CD02048007810B100F07FF902E00220FD
:104AD00000F09BF94FF2FF701649086016480088F5
:104AE00000F4007015490988084208D04FF6FF50BD
:104AF0001049086014480078401C134908700E489B
:104B0000008800F480700D490988084206D04FF6ED
:104B1000FF6008490860072000F077F90648008820
:104B200000F4004005490988084201D0FFF71EF84B
:104B300010BD0000445C0040F4000020860000200E
:104B4000FC00002098010020B800002010B50020D3
:104B50007C490968887200F00FF900207A490860E2
:104B60004FF43F4079490880084600887649091F7C
:104B7000086000207649086010BD10B5002071491A
:104B8000096888726F490968C8727248C0796D49AE
:104B9000096848720020FFF70BFA4FF400710020FB
:104BA000FFF71EFA10210020FFF72FFA182100202E
:104BB000FFF791FB58210020FFF780FB0020FFF753
:104BC000B9FA654890F82C100020FFF7D2FB0020BE
:104BD000FFF785FA4FF4C0610120FFF701FA4FF4A7
:104BE00080710120FFF76AFB08210120FFF79AFB83
:104BF00020210120FFF709FA012055490860002013
:104C0000FEF70FFF10BD5548817A11B10521504ABA
:104C10001160704704204E49086070477047704724
:104C2000014629B90120474A1268108200207047C6
:104C30004B48FCE710B504464A492046FEF7DDFB29
:104C400010BD10B5044648492046FEF7D6FB10BDFE
:104C500070B504460025062C1AD13A480068007841
:104C600000F07F00012813D136480068407978B9F8
:104C7000344800688078222802D1AFF2390512E06A
:104C800030480068807821280DD1AFF257050AE03E
:104C90002C480068007800F07F00212803D1032C05
:104CA00001D1AFF283050DB9022070BD254800681F
:104CB000856100212348006841820020A847002028
:104CC000F3E720480068C17825480160002070475C
:104CD00000B502461B480068007800F07F002128DC
:104CE00004D10B2A02D1FFF7ECFF00BD0220FCE744
:104CF00010B504461D492046FEF77FFB10BD10B5D8
:104D000004461B492046FEF778FB10BD70B50546EA
:104D10000C480068C478042C01DD002070BD1548E3
:104D200000EBC4012846FEF768FBF7E702460029BE
:104D300001DD02207047002A01DD0220FAE7002091
:104D4000F8E700007C000020445C00408600002062
:104D5000940100208A510008FC00002070460020C9
:104D60009001002068010020600100205001002017
:104D7000580100207001002010B50120FFF7B6FD9A
:104D800001244C48046000204B49088008460088F4
:104D9000484908600020091D08604FF4E05046496A
:104DA00008800846008843490860002010BD10B5FF
:104DB0000120404908600020091D0860FFF796FDAA
:104DC00003203C490860002010BD10B53948006838
:104DD00084B244F0080437480460006884B244F0A8
:104DE000040434480460FFF71DFD10BD10B53148C0
:104DF000006884B224F004042E480460FFF71FFD0D
:104E00004FF43F402B49086010BD70B50546072D93
:104E100001D02A48057029480078082841D2DFE8E7
:104E200000F0040A1016212E4142FFF7DFFF062092
:104E3000224908703BE0FFF7D9FF04201F490870A2
:104E400035E002201D494870032008702FE01B4800
:104E50004078401E194948700846407808B9042037
:104E6000087024E01348006884B244F0100411482C
:104E700004600520114908700A20487017E00F48A7
:104E80004078401E0D4948700846407840B90948AE
:104E9000006884B224F010040648046006200870FC
:104EA00005E000BF00BF06200449087000BF00BF36
:104EB00070BD0000405C0040860000209901002089
:104EC000704700000FB4044910B503AA029800F01F
:104ED000F5F810BC5DF814FB040000202DE9F0414A
:104EE0000E460446002020622046E168884730B321
:104EF000252805D0D4E901219047206A401CF2E71B
:104F0000E168204600278847050018D0A5F1410038
:104F1000192802D820354FF400673246294620462A
:104F20002760FBF75FF940B1012804D0F61D26F099
:104F300007060836D8E7361DD6E72846DAE7206A9E
:104F4000BDE8F0812DE9F04106460024106875297E
:104F5000314616A511D0AFF30080002803DAC0F166
:104F6000000013A507E031688A0701D511A502E00A
:104F7000490704D510A5012401E0AFF3008000210A
:104F80000A2306F1240707E0B0FBF3F203FB12004B
:104F9000303078541046491C0028F5D123462A4663
:104FA0003046BDE8F04100F02CB8000000000000E1
:104FB0002D0000002B0000002000000010B5431C55
:104FC00002E010F8011B71B18107FAD14FF00132F4
:104FD00002C88C1A8C4314EAC211F9D0C01A0A060E
:104FE00003D0C01E10BDC01A10BD0A0401D0801E1F
:104FF00010BD0902FCD0401E10BD704770477047BD
:1050000070472DE9F0470D4699469246044600F157
:1050100024080168880604D5E06921F010012160A8
:1050200000E00120A84202DDA0EB050700E0002718
:10503000A16907EB050202EB0900A1EB0000A061EA
:105040002078C00602D42046AFF30080002608E096
:10505000D4E901211AF806009047206A401C761C0A
:1050600020624E45F4DB2078C0060AD52046AFF317
:10507000008006E0D4E9012130209047206A401CDE
:105080002062381EA7F10107F4DC07E0D4E9012112
:1050900018F805009047206A401C2062281EA5F1E0
:1050A0000105F3DC2046AFF300802078000602D52E
:1050B0000220BDE8F0870120FBE70000074B70B538
:1050C0000D467B4400F011F80446284600F020F815
:1050D00010B14FF0FF3070BD204670BD11B6FFFF1C
:1050E00001694A1C02610878704700B58FB0CDE9AC
:1050F00001310021059105497944CDE9031011469C
:105100006846FFF7EBFE0FB000BD0000E5FFFFFFB4
:10511000007B00F080007047754600F029F8AE462D
:1051200005006946534620F00700854618B020B5B3
:10513000FCF7AEFEBDE820404FF000064FF0000740
:105140004FF000084FF0000B21F00701AC46ACE82F
:10515000C009ACE8C009ACE8C009ACE8C0098D469C
:1051600070470446AFF300802046FBF74DF800007F
:10517000004870478C4600201201000200000040E9
:105180001204235700020102030109022900010150
:1051900000C03209040000020301010009210001DE
:1051A0000001223D000705810308002007050103D7
:1051B00008002005010906A101050719E029E715E6
:1051C00000250195087501810295017508810395F7
:1051D00006750825FF1900296581002501950275CE
:1051E000010508190129029102950175069103C074
:1051F000040309042603530054004D0069006300B2
:1052000072006F0065006C0065006300740072003E
:105210006F006E006900630073001E0353005400AA
:105220004D003300320020004A006F007900730007
:105230007400690063006B005852000800000020F1
:105240009C0100006C010008EC5200089C01002049
:1052500054470000C801000801102D010203040496
:1052600000092806070809020406081AFF01C11AE6
:10527000AA01033EF843141A03531254124D123379
:105280001232123102113013073B0A320804412353
:105290000201134D4B1B087B04131D4C1B081F04FC
:1052A0001A51041AD104132D4D1B08F1081AFF04DA
:1052B0001A0D0C416A407019140916581A151C135E
:1052C00078513308121A8A0832291AB308323D1A63
:1052D0009C0832091AF00832041AF4082A26E4124B
:0C52E000522B081E2021B3201A199F1128
:0400000508000131BD
:00000001FF
